:100C1400456E74657220436F64653A0048454C4CD8
:100C24004F0057524F4E4720434F44450031323313
:020C340034008A
:040BEA007F327E00D8
:100BEE00E4FDFCC3ED9FEE6480F8EC648098501534
:100BFE00E4FBFA0BBB00010AEB64FA4A70F50DBD7B
:050C0E0000010C80DE76
:010C130022BE
:100C54008FA0C280D2827F027E00120BEEC282225B
:100C64008FA0D280D2827F027E00120BEEC282223B
:100C36007F38120C547F0E120C547F01120C547F15
:0E0C460006120C547F0C120C547F80020C54CA
:060BBF007BFF7A0C7914A3
:100BC5008B138A148915AB13AA14A9151208F6609C
:100BD500130515E5157002051414F91208F6FF1230
:050BE5000C6480E22217
:100AAA00D2B3D2B2D2B1D2B0C2B0D2B3D2B2D2B130
:100ABA0020B409120BEA30B4FD7F312220B50912A5
:100ACA000BEA30B5FD7F322220B609120BEA30B6A6
:100ADA00FD7F3322C2B1D2B3D2B2D2B020B409124E
:100AEA000BEA30B4FD7F342220B509120BEA30B587
:100AFA00FD7F352220B609120BEA30B6FD7F362279
:100B0A00C2B2D2B3D2B1D2B020B409120BEA30B415
:100B1A00FD7F372220B509120BEA30B5FD7F382256
:100B2A0020B609120BEA30B6FD7F3922C2B3D2B21F
:100B3A00D2B1D2B020B509120BEA30B5FD7F30220E
:030B4A007F002207
:100B4D0078097C007D007BFF7A0C79317E007F0572
:100B5D001208D0120C36120BBFE4F9E9C3940450FD
:100B6D0017120AAA8F08E50860F1740E29F8A60875
:100B7D007F2A120C640980E3E4F5127F01120C54F4
:100B8D00780E7C007D007B007A007909120A8DEFCA
:100B9D007BFF70067A0C792080047A0C7926120B73
:100BAD00C57FC87E00120BEE7F01120C54120BBFD5
:020BBD0080A70F
:03000000020C747B
:0C0C7400787FE4F6D8FD758115020B4D69
:10080000E709F608DFFA8046E709F208DFFA803EDA
:1008100088828C83E709F0A3DFFA8032E309F608C7
:10082000DFFA8078E309F208DFFA807088828C832F
:10083000E309F0A3DFFA806489828A83E0A3F608E3
:10084000DFFA805889828A83E0A3F208DFFA804CBD
:1008500080D280FA80C680D4806980F28033801094
:1008600080A680EA809A80A880DA80E280CA8033FD
:1008700089828A83ECFAE493A3C8C582C8CCC58375
:10088000CCF0A3C8C582C8CCC583CCDFE9DEE78045
:100890000D89828A83E493A3F608DFF9ECFAA9F0C4
:1008A000EDFB2289828A83ECFAE0A3C8C582C8CC1A
:1008B000C583CCF0A3C8C582C8CCC583CCDFEADE33
:1008C000E880DB89828A83E493A3F208DFF980CC95
:1008D00088F0EF60010E4E60C388F0ED2402B4048E
:1008E0000050B9F582EB2402B4040050AF23234535
:0608F00082239008507302
:1008F600BB010689828A83E0225002E722BBFE0200
:09090600E32289828A83E4932232
:10090F00E3F5F009E208B5F06D606B80F3E3F5F005
:10091F0009E608B5F060605E80F387F009E608B578
:10092F00F054605280F487F009E208B5F048604651
:10093F0080F488828C8387F009E0A3B5F0386036A5
:10094F0080F488828C8387F009E493A3B5F0276045
:10095F002580F388828C83E3F5F009E0A3B5F016C8
:10096F00601480F388828C83E3F5F009E493A3B5D8
:10097F00F004600280F2020A3A808580E7808E8060
:10098F00D2803C8015806C807E809B80B5808B8070
:10099F00A1804F8070803A020A4689828A83ECFADE
:1009AF00E493F5F0A3C8C582C8CCC583CCE493A368
:1009BF00C8C582C8CCC583CCB5F070606E80E189A4
:1009CF00828A83E493F5F0A3E208B5F05E605C8061
:1009DF00F289828A83E0F5F0A3E608B5F04D604B0B
:1009EF0080F389828A83E0F5F0A3E208B5F03C60DA
:1009FF003A80F389828A83E493F5F0A3E608B5F091
:100A0F002A602880F2805389828A83ECFAE493F576
:100A1F00F0A3C8C582C8CCC583CCE0A3C8C582C823
:100A2F00CCC583CCB5F004600280E27FFFB5F00245
:100A3F000F2240027F012289828A83ECFAE0F5F0CF
:100A4F00A3C8C582C8CCC583CCE0A3C8C582C8CC17
:100A5F00C583CCB5F0D560D380E389828A83ECFA65
:100A6F00E0F5F0A3C8C582C8CCC583CCE493A3C876
:100A7F00C582C8CCC583CCB5F0B160AF80E288F039
:100A8F00ED2402B4040050A3F582EB2402B4040059
:0B0A9F0050992323458223900988739F
:00000001FF
