:10085C004849524553484B554D4152414E20470053
:100825007F3812087B7F0E12087B7F0112087B7FC1
:0E0835000612087B7F0C12087B7F8002087B76
:0E087B008FA0C2B0C2B1D2B212086CC2B222BB
:0E0889008FA0D2B0C2B1D2B212086CC2B2229D
:100800008B088A09890AAB08AA09A90A1208436059
:1008100013050AE50A7002050914F9120843FF12CC
:05082000088980E222BE
:0E086C00E4FFFE0FBF00010EBE17F8BF71F5CE
:01087A00225B
:0C0897001208257BFF7A08795C0208003B
:030000000208A350
:0C08A300787FE4F6D8FD75810A02089702
:10084300BB010689828A83E0225002E722BBFE02B3
:09085300E32289828A83E49322E6
:00000001FF
