:0A099300C0F9A4B0999282F8809890
:10096100E4FDFCC3ED9FEE6480F8EC6480985015C3
:10097100E4FBFA0BBB00010ABA02F8BBBCF50DBDE2
:0509810000010C80DE06
:01098600224E
:0808F6008E088F098C0A8D0B9E
:1008FE00780C7C007D007BFF7A0979937E007F0A5D
:10090E001208D0A909E9C3950BE50A6480F8748032
:10091E00985011740C29F8E6F5B07F647E00120928
:04092E00610980E1FA
:0109320022A2
:10093300E4F5A075A0017D047C00E4FFFE1208F637
:1009430075A0027D077C007F047E001208F675A067
:0E095300047D0A7C007F077E001208F680D526
:030000000209876B
:0C098700787FE4F6D8FD75811502093375
:10080000E709F608DFFA8046E709F208DFFA803EDA
:1008100088828C83E709F0A3DFFA8032E309F608C7
:10082000DFFA8078E309F208DFFA807088828C832F
:10083000E309F0A3DFFA806489828A83E0A3F608E3
:10084000DFFA805889828A83E0A3F208DFFA804CBD
:1008500080D280FA80C680D4806980F28033801094
:1008600080A680EA809A80A880DA80E280CA8033FD
:1008700089828A83ECFAE493A3C8C582C8CCC58375
:10088000CCF0A3C8C582C8CCC583CCDFE9DEE78045
:100890000D89828A83E493A3F608DFF9ECFAA9F0C4
:1008A000EDFB2289828A83ECFAE0A3C8C582C8CC1A
:1008B000C583CCF0A3C8C582C8CCC583CCDFEADE33
:1008C000E880DB89828A83E493A3F208DFF980CC95
:1008D00088F0EF60010E4E60C388F0ED2402B4048E
:1008E0000050B9F582EB2402B4040050AF23234535
:0608F00082239008507302
:00000001FF
